:020000040800F2
:10000000C005002005010008730C0008110B000852
:10001000710C0008C7010008F50D00080000000081
:100020000000000000000000000000008D0D00082E
:100030008102000800000000750C0008910D000806
:100040001F0100081F0100081F0100081F01000810
:100050001F0100081F0100081F0100081F01000800
:100060001F0100081F0100081F0100081F010008F0
:100070001F0100081F0100081F0100081F010008E0
:100080001F0100081F0100081F0100081F010008D0
:100090001F0100081F0100081F0100081F010008C0
:1000A0001F0100081F0100081F0100081F010008B0
:1000B0001F0100081F010008000000001F010008C8
:1000C0001F01000800000000000000001F010008E0
:1000D000000000001F0100081F01000800000000D0
:1000E0001F0100081F0100081F010008DFF810D0E1
:1000F00000F02CF800480047BD0E0008AFF3008068
:10010000C00500200648804706480047FEE7FEE796
:10011000FEE7FEE7FEE7FEE7FEE7FEE7FEE7FEE7B7
:10012000F30D0008ED000008D2B201E000F8012B49
:10013000491EFBD270470022F6E710B513460A4667
:1001400004461946FFF7F0FF204610BD064C074D48
:1001500006E0E06840F0010394E807009847103497
:10016000AC42F6D3FFF7C6FF0010000820100008CD
:1001700070B58C1810F8015B15F0070301D110F869
:10018000013B2A1106D110F8012B03E010F8016B96
:1001900001F8016B5B1EF9D12B0705D40023521E19
:1001A0000DD401F8013BFAE710F8013BCB1A921C81
:1001B00003E013F8015B01F8015B521EF9D5A1427F
:1001C000D8D3002070BDFEE770B52B4C0022202153
:1001D000204600F098F900224FF48041204600F0BC
:1001E00092F9264D00220121284600F08CF94FF4A7
:1001F000004600223146284600F085F90022802181
:10020000284600F080F900220221284600F07BF900
:1002100000224021284600F076F9002208212846D5
:1002200000F071F901223146204600F06CF90122FC
:100230002021284600F067F901221021284600F00D
:1002400062F901221021204600F05DF9012204210B
:10025000284600F058F901220821204600F053F901
:1002600001225103204600F04EF92046BDE87040BF
:100270000122110300F047B9000C014000080140C1
:10028000704770B5064600250021284600F0F4FCB2
:10029000002406EBC400415D204600F045FD641CCF
:1002A000082CF6DBFFF790FF6D1C082DECDB70BD12
:1002B0002DE9F04114468846074620E0002600213B
:1002C000304600F0D9FC002507EBC500815D2846CB
:1002D00000F02AFD6D1C082DF6DBB8F1010F09D1E5
:1002E000002C07DD641E0A2C01DA600000E02046C5
:1002F00000F00AF8FFF768FF761C082EDFDB002C01
:10030000DCD1BDE8F081000070B5044600F000F9D2
:100310000546601C02D004480078044400F0F8F858
:10032000401BA042FAD370BD6C0100202DE9F84FAC
:10033000DFF89C91002409F1040A0AF1040B23461A
:100340000F270BF1040EBBE00125A5402A40AA426D
:1003500076D1DFF880C14E68A6EB0C0866452BD03D
:100360000DDC032E34D005DC36B3012E19D0022E5D
:100370002FD11BE0112E16D0122E2AD119E0B8F57C
:10038000881F19D006DCB8F5803F15D0B8F5801F5E
:100390001FD111E0B8F5001F0ED0B8F5041F18D119
:1003A0000AE0CB6815E0CB681B1D12E0CB68083370
:1003B0000FE0CB680C330CE08B682BB1012B4FF0B6
:1003C000080303D0456104E0042302E0056100E076
:1003D0000023FF2A01D8064601E000F104064FEA97
:1003E000840501D9A5F12005D6F8008007FA05FC9F
:1003F00028EA0C0803FA05F548EA0508C6F8008063
:100400004D68ED005BD5344DAE6946F00106AE6136
:10041000AD6924F0030605F0010500952F4D06EBAC
:10042000050CDCF80850A607360F07FA06F825EA8F
:100430000805DFF8AC80404503D14FF0000810E01C
:100440003DE0DFF8A080404502D14FF0010808E010
:10045000DFF89480404502D14FF0020801E04FF0F0
:10046000030808FA06F848EA0508CCF808804D6841
:10047000D9F80060ED034D4601D5164300E09643E0
:100480002E604D68DAF80060AD03554601D516437D
:1004900000E096432E604D68DBF80060ED025D469B
:1004A00001D5164300E096432E604D68DEF80060EB
:1004B000AD02754601D5164300E096432E60641CDC
:1004C0000A6832FA04F57FF43FAFBDE8F88F000008
:1004D0000004014000001110001002400000014023
:1004E00000080140000C01400010014080680840F5
:1004F00000D001207047C26821EA02030A4043EAA3
:100500000241016170470AB1016170470904FBE7CC
:1005100001488068704700006C0100200248816833
:1005200002781144816070476C010020074810B5C3
:10053000016841F010010160032000F067F800201D
:1005400000F006F800F024F8002010BD0020024062
:1005500070B50D4D04464FF47A712878B1FBF0F078
:100560000A490968B1FBF0F000F0BEFA48B9102C56
:1005700007D200222146501E00F028F800206C60AF
:1005800070BD012070BD00006C01002078010020CA
:100590000C4808B5816941F001018161816901F070
:1005A00001010091C16941F08051C161C06900F051
:1005B000805000900448416821F0E06141F0806182
:1005C000416008BD0010024000000140F0B40E4B35
:1005D0001B680C46C3F30223C3F10705042D00D9A1
:1005E0000425191D072901D2002300E0DB1E012686
:1005F00006FA05F1491E214099409E40761E16409C
:100600003143F0BC00F0F7BB0CED00E0064900F010
:10061000070208684FF6FF03184040EA0220034A29
:1006200010430860704700000CED00E00000FA0580
:100630002DE9F0470F46050061D0434E306800F0C9
:100640000700B84209D2306820F007003843306014
:10065000306800F00700B84251D128683B4C810750
:1006600012D5400703D5606840F4E06060602878E8
:10067000000703D5606840F4605060606068A96856
:1006800020F0F000084360602878C00728D0686830
:10069000012810D02168022810D0890700292EDAFD
:1006A000616821F0030101436160FFF731FF80467B
:1006B00041F288390DE021688903EFE78901EDE710
:1006C000FFF726FFA0EB0801494502D90320BDE84A
:1006D000F0876068696800F00C00B0EB810FEFD123
:1006E000306800F00700B8420BD9306820F00700EE
:1006F00038433060306800F00700B84201D0012074
:10070000E5E72878400705D56068E96820F4E060EF
:10071000084360602878000706D56068296920F4DE
:10072000605040EAC100606000F018F86168084A53
:10073000C1F30311515CC8400649086006480068CF
:10074000FFF706FF0020C2E7002002400010024031
:10075000F00F0008780100207001002012A185B080
:100760000FC98DE80F0014A0144A00680490516866
:10077000134801F00C03042B10D0082B0ED1C1F349
:100780008343C9031DF803000AD5516804AAC1F3C5
:100790004041515C0A4A5043B0FBF1F005B070474C
:1007A00008494843FAE70000020304050607080960
:1007B0000A0B0C0D0E0F1010010200000010024079
:1007C00000127A0000093D002DE9F84F040070D0B6
:1007D0002078C04DC00749D06868C0F38100012867
:1007E00007D06868C0F38100022809D16868C00397
:1007F00006D52868800339D560680028E7D035E041
:100800006068B0F5803F0BD010B1B0F5A02F11D0CB
:10081000286820F480302860286820F4802002E0D6
:10082000286840F480302860606890B1FFF770FE5F
:1008300006460AE0286840F480202860F0E700BF00
:10084000FFF766FE801B642873D828688003F7D5FD
:100850000CE0FFF75DFE064605E000BFFFF758FE1F
:10086000801B6428F0D828688003F7D420789A4E3B
:1008700080074FF001094FF0000839D5686810F083
:100880000C0F07D06868C0F38100022809D168689E
:10089000C00306D42868800714D52069012808D130
:1008A00010E02069B0B1C6F80090FFF731FE0746AE
:1008B00005E00AE1FFF72CFEC01B0228C4D8286817
:1008C0008007F7D52868616920F0F80040EAC10088
:1008D00028600DE0C6F80080FFF71AFE074604E026
:1008E000FFF716FEC01B022823D828688007F7D41C
:1008F000207800072CD57948A169D9B1C0F80090BB
:10090000FFF706FE074604E0FFF702FEC01B0228C1
:100910000FD8686A8007F7D571484FF4FA5100681C
:10092000B0FBF1F0009000BF0098411E0091FAD298
:100930000EE080E0C0F80080FFF7EAFD074604E023
:10094000FFF7E6FDC01B022875D8686A8007F7D458
:100950002078400760D5E8690027C00008D4E8691E
:1009600040F08050E861E869012700F08050009075
:100970005C480168C90513D40168834641F480715D
:100980000160FFF7C5FD824606E000BFFFF7C0FD2E
:10099000A0EB0A0064284ED8DBF80000C005F5D5AE
:1009A000E06801280AD008B1052813D0286A20F091
:1009B00001002862286A20F0040002E0286A40F062
:1009C00001002862E06841F2883B98B1FFF7A0FD82
:1009D00082460BE0286A40F004002862EEE700BF80
:1009E000FFF796FDA0EB0A0159455AD8286A8007FF
:1009F000F6D50CE0FFF78CFD824605E0FFF788FD99
:100A0000A0EB0A0159454CD8286A8007F6D41FB1DB
:100A1000E86920F08050E861E06988B36968C1F353
:100A20008101022944D00228C6F8608004D0FFF773
:100A30006FFD044638E034E0FFF76AFD074604E046
:100A4000FFF766FDC01B02282BD828688001F7D469
:100A5000206AB0F5803F05D16868A16820F40030B5
:100A600008436860D4E908010843696821F47411F7
:100A700008436860C6F86090FFF74AFD044606E048
:100A800025E000BFFFF744FD001B022809D82868B5
:100A90008001F7D51BE000BFFFF73AFD001B0228DD
:100AA00002D90320BDE8F88F28688001F4D40EE055
:100AB0000128F7D06868226A00F48031914204D19D
:100AC000616A00F47010884201D00120EAE700203A
:100AD000E8E7000000100240000042428004424269
:100AE000780100200070004010B5401EB0F1807FFA
:100AF00001D3012010BD4FF0E02460610F21601789
:100B000000F079F90020A06107202061002010BDCD
:100B1000FEE7000070B5114C0125114862786902AA
:100B200052B1012A0ED0022A05D1FFF7DFFC80B1B5
:100B300000206070A57070BDFFF7D8FC0028FAD1C6
:100B4000657070BDFFF7D2FC00B92570022060709F
:100B500070BD60680A30606070BD00000000002059
:100B6000000C014070B586B0002420480094019428
:100B700002940394816941F004018161816901F06B
:100B800004010491816941F010018161816901F0E2
:100B900010010491816941F008018161816901F0CE
:100BA00008010491816941F0200181618069104E42
:100BB00000F020004FF400550490002229463046F2
:100BC000FFF7A1FC0320CDE902400095012569460D
:100BD00001953046FFF7AAFB68028DE831006946AF
:100BE0000448FFF7A3FB06B070BD000000100240F0
:100BF00000100140000C01402DE9FF4700240B4E7E
:100C0000DFF82C90254601274FF00308029536F8AF
:100C10001400CDE900076946CDF80C804846FFF77F
:100C200085FB641C092CF1DBBDE8FF874A0100202D
:100C3000000801402DE9FF4700240B4EDFF82C90FF
:100C4000254601274FF00308029536F81400CDE938
:100C500000076946CDF80C804846FFF767FB641C27
:100C6000072CF1DBBDE8FF875C010020000C014090
:100C7000FEE770477047000030B4184B88B1184C3D
:100C8000012812D0022813D0032815D0042819D027
:100C900005281AD006281BD007281DD10A4699140A
:100CA0000CE00A464FF4004108E00A46202101E02A
:100CB0000A461021204602E00A461021184630BCA0
:100CC000FFF721BC0A460421F4E70A460821F5E7AC
:100CD0000A464FF40051F1E730BC7047000C014068
:100CE0000008014010B507240021204600F01CF840
:100CF00001212046FFF7C0FF3220FFF705FB641EED
:100D0000F2D510BD10B500240121204600F00CF8EA
:100D100000212046FFF7B0FF3220FFF7F5FA641CF0
:100D2000082CF1DB10BD0000164B98B1012814D03F
:100D3000154B022815D0032816D0042818D00528F2
:100D400019D006281AD007281BD10A4608211846B0
:100D5000FFF7D9BB0A462021F9E70A464FF4804144
:100D6000F5E70A460121F2E70A464FF40041EEE7B3
:100D70000A468021EBE70A460221E8E70A464021BD
:100D8000E5E77047000C0140000801407047000093
:100D900010B5FFF7C3FB07480178491CC9B20170C1
:100DA0000A2905D100210170BDE81040FFF7B2BE4D
:100DB00010BD00004801002000B58FB02821684612
:100DC000FFF7B9F914210AA8FFF7B5F96846FFF74C
:100DD000FBFC0F200A9002200B9000204FF4806152
:100DE000CDE90C010E9002210AA8FFF721FC0FB0FB
:100DF00000BD7047FEE70907090E002804DB00F17B
:100E0000E02080F80014704700F00F0000F1E020AF
:100E100080F8141D704702E008C8121F08C1002A9C
:100E2000FAD170477047002001E001C1121F002A6B
:100E3000FBD1704710B5062400210720FFF71CFFE7
:100E400001212046FFF770FF6420FFF75DFAFFF7EE
:100E5000BBF9641EF0D5062400212046FFF70CFFE5
:100E600001210020FFF760FF6420FFF74DFAFFF734
:100E7000ABF9641EF0D5012400210846FFF7FCFE03
:100E800001212046FFF750FF6420FFF73DFAFFF7EE
:100E90009BF9641C082CEFDB012400212046FFF79E
:100EA000EBFE01210720FFF73FFF6420FFF72CFA3C
:100EB000FFF78AF9641C082CEFDB10BDFFF736FB47
:100EC000FFF750FEFFF798FEFFF7B4FEFFF774FF41
:100ED000FFF748FE0024FFF705FFDFF80491DFF875
:100EE00004814FF40057142698F802004546012863
:100EF0001AD10020A8702878012814D16868B0F5AC
:100F00002F7F06D8641CA4B239464846FFF7F3FA8F
:100F100009E0B0F5966F06D9632439464846FFF7D5
:100F2000EAFA6E6059E06E60ECB1012C1ED0022C22
:100F30001ED0032C23D0042C24D0052C29D0062C21
:100F40002AD0072C2FD0082C30D0092C35D00B2CD0
:100F500038D00C2C05D0632C3FD0642C01D0652CEC
:100F6000C2D10024C0E7FFF765FFBDE71E4826E0B9
:100F70001C48142201210830FFF79AF9032419486C
:100F800008301CE017481E220121C830FFF790F9F5
:100F900005241448C83012E01248142201214830B8
:100FA000FFF786F907240F48483008E00D4814225F
:100FB00001218830FFF77CF909240A488830FFF7BF
:100FC00060F991E7FFF79EFE6420FFF79DF9FFF7B8
:100FD00089FE6420FFF798F986E70448EFE70000F0
:100FE00000100140000000207C01002008010020CA
:100FF00000000000000000000102030406070809C9
:1010000020100008000000207C0100007001000892
:101010007C1000087C01002044040000260E00081B
:10102000410215143A0103113A01018908390949AD
:10103000214907B9329907092C10495F093801B9CC
:10104000B739A759C1490C790B49184908F93739FB
:1010500024693DE9088944D94F5948120112021206
:1010600004120812101220124022804A800C190D1E
:0C10700029071911292682101324F4000E
:04000005080000ED02
:00000001FF
