:020000040800F2
:10000000680A002005010008870F0008250E000877
:10001000850F0008530500081511000800000000B6
:10002000000000000000000000000000AD1000080B
:100030007105000800000000890F0008B1100008D9
:100040001F0100081F0100081F0100081F01000810
:100050001F0100081F0100081F0100081F01000800
:100060001F0100081F0100081F0100081F010008F0
:100070001F0100081F0100081F0100081F010008E0
:100080001F0100081F0100081F0100081F010008D0
:100090001F0100081F0100081F0100081F010008C0
:1000A0001F0100081F0100081F0100081F010008B0
:1000B0001F0100081F010008000000001F010008C8
:1000C0001F01000800000000000000001F010008E0
:1000D000000000001F0100081F01000800000000D0
:1000E0001F0100081F0100081F010008DFF810D0E1
:1000F00000F0F2F90048004755110008AFF3008006
:10010000680A00200648804706480047FEE7FEE7E9
:10011000FEE7FEE7FEE7FEE7FEE7FEE7FEE7FEE7B7
:1001200013110008ED000008202A04DB203A21FA10
:1001300002F00021704721FA02F3D040C2F1200200
:100140009140084319467047D2B201E000F8012BF4
:10015000491EFBD270470022F6E710B513460A4647
:1001600004461946FFF7F0FF204610BD2DE9FE4F6B
:10017000804681EA0300C00F0C46009021F0004148
:1001800023F00045B8EB0200A94105D240462146C4
:1001900090461C460B46024623F00040104347D0D1
:1001A000270DC7F30A00C3F30A510290401A0190C9
:1001B00040286BDAC3F3130040F4801B009892468A
:1001C00020B10023D2EB030A63EB0B0B01985946D5
:1001D000C0F14002504600F001F906460D46504677
:1001E0005946019A00F009F910EB0800614100241A
:1001F00087EA115284EAE7731A4340D0009A62B347
:10020000019A012A4FEA075215DC001B61EB02013B
:100210004FF0004202EA0752CDE90042001C41F5CE
:10022000801132462B4600F009F903B0BDE8F08F8B
:1002300040462146F9E7001B61EB0201001C41F535
:10024000801300185B412018A2F5001747EB03014B
:1002500040EAD570B6196D4111E06D084FEA3606D7
:1002600045EAC0754FEA0752001B61EB0201001C12
:1002700041F5801149084FEA3000001951413246DA
:100280002B4603B0BDE8F04F00F0C9B8009801223A
:1002900040000023D0EB020263EBE073009821469C
:1002A0004FEAE074B8EB000061EB0401E9E783F08A
:1002B00000435BE781F0004158E770B521F000434F
:1002C00003430CD0C1F30A550024D5EB040564EBBD
:1002D0000403D617AD1AB34102DB0020014670BDFE
:1002E000201841EB025170BD0EB5C10F80EAE070DD
:1002F0000844CA07002140F233438DE80E000A4645
:100300000B4600F09BF803B000BD70B5C1F30A5274
:1003100001F000450024C1F3130140F2FF3341F422
:1003200080119A4201DA002070BD40F233439A42B4
:10033000A2F2334203DC5242FFF7F6FE00E09040A7
:100340002C43F1D0404270BDC1F30A5210B5C1F345
:10035000130140F2FF3341F480119A4201DA002088
:1003600010BD40F233439A42A2F2334203DC5242C0
:10037000FFF7DAFE10BD904010BD000030B5041E3E
:1003800071F1000404DB4FF00044404264EB0101D2
:10039000141E73F1000405DB1C464FF0004352426B
:1003A00063EB04038B4208BF824230BD30B5041EAC
:1003B00071F1000404DB4FF00044404264EB0101A2
:1003C000141E73F1000405DB1C464FF0004352423B
:1003D00063EB0403994208BF904230BD202A04DB3E
:1003E000203A00FA02F1002070479140C2F1200348
:1003F00020FA03F3194390407047202A06DBCB17FD
:10040000203A41FA02F043EAE07306E041FA02F3CF
:10041000D040C2F12002914008431946704710B500
:10042000141E73F1000408DA401C41F10001921817
:100430005B411A4301D120F0010010BD2DE9F04DC0
:1004400092469B4611B1B1FA81F202E0B0FA80F215
:1004500020329046FFF7C2FF04460F4640EA0A00EA
:1004600041EA0B0153465A46084313D0114653EA5A
:10047000010019D0C8F140025046FFF755FE05466D
:100480000E46504659464246FFF7A8FF084305D09E
:10049000012004E020463946BDE8F08D00200543E8
:1004A00046EAE0762C4337430A986305E40AA0EB5A
:1004B00008000022FD0A44EA47540A3002D5002011
:1004C0000146E9E7010510196941DDE90845001910
:1004D0006941BDE8F04DA2E7064C074D06E0E06833
:1004E00040F0010394E8070098471034AC42F6D37B
:1004F000FFF700FEBC120008DC12000870B58C1873
:1005000010F8015B15F0070301D110F8013B2A1127
:1005100006D110F8012B03E010F8016B01F8016B14
:100520005B1EF9D12B0705D40023521E0DD401F810
:10053000013BFAE710F8013BCB1A921C03E013F8D9
:10054000015B01F8015B521EF9D5A142D8D300200E
:1005500070BDFEE710B500240021204600F070FDBC
:100560000121204600F012FD641C082CF4DB10BDB4
:10057000704700002DE9F041DFF894800F464446B3
:100580000646D4E90001FFF7C0FEFFF7ADFEC4E95F
:10059000000100250021284600F0F8FC5FF000046F
:1005A00006EB441010F82510204600F049FD641CAD
:1005B000082CF5DB012F23D144460022D4E90001A9
:1005C0001346FFF7F3FE1BD2D4E900010022114BC2
:1005D000FFF76DFE0022104BC4E90001FFF7CEFECD
:1005E00008D2D4E900010122FFF767FEFFF7ACFE55
:1005F00000F014F8D4E90001FFF7A6FE00F00EF8B1
:10060000FFF7A8FF6D1C082DC4DBBDE8F0810000DA
:10061000100600200000F03F0000244070B50446A2
:1006200000F000F90546601C02D00448007804443C
:1006300000F0F8F8401BA042FAD370BD5806002025
:100640002DE9F84FDFF89C91002409F1040A0AF122
:10065000040B23460F270BF1040EBBE00125A54038
:100660002A40AA4276D1DFF880C14E68A6EB0C087A
:1006700066452BD00DDC032E34D005DC36B3012EBD
:1006800019D0022E2FD11BE0112E16D0122E2AD1F6
:1006900019E0B8F5881F19D006DCB8F5803F15D0F1
:1006A000B8F5801F1FD111E0B8F5001F0ED0B8F5C6
:1006B000041F18D10AE0CB6815E0CB681B1D12E0BF
:1006C000CB6808330FE0CB680C330CE08B682BB1A0
:1006D000012B4FF0080303D0456104E0042302E03E
:1006E000056100E00023FF2A01D8064601E000F181
:1006F00004064FEA840501D9A5F12005D6F800804B
:1007000007FA05FC28EA0C0803FA05F548EA05088B
:10071000C6F800804D68ED005BD5344DAE6946F0FB
:100720000106AE61AD6924F0030605F001050095F0
:100730002F4D06EB050CDCF80850A607360F07FA1C
:1007400006F825EA0805DFF8AC80404503D14FF0F4
:10075000000810E03DE0DFF8A080404502D14FF0F6
:10076000010808E0DFF89480404502D14FF002080C
:1007700001E04FF0030808FA06F848EA0508CCF84B
:1007800008804D68D9F80060ED034D4601D5164349
:1007900000E096432E604D68DAF80060AD035546E0
:1007A00001D5164300E096432E604D68DBF80060EB
:1007B000ED025D4601D5164300E096432E604D687C
:1007C000DEF80060AD02754601D5164300E09643A1
:1007D0002E60641C0A6832FA04F57FF43FAFBDE86E
:1007E000F88F0000000401400000111000100240CA
:1007F0000000014000080140000C014000100140D1
:100800008068084000D001207047C26821EA0203D6
:100810000A4043EA0241016170470AB10161704731
:100820000904FBE701488068704700005806002073
:1008300002488168027811448160704758060020A0
:10084000074810B5016841F010010160032000F075
:1008500067F8002000F006F800F024F8002010BD32
:100860000020024070B50D4D04464FF47A7128788F
:10087000B1FBF0F00A490968B1FBF0F000F0BEFAF4
:1008800048B9102C07D200222146501E00F028F84B
:1008900000206C6070BD012070BD00005806002073
:1008A000640600200C4808B5816941F001018161AE
:1008B000816901F001010091C16941F08051C1617C
:1008C000C06900F0805000900448416821F0E06168
:1008D00041F08061416008BD00100240000001400D
:1008E000F0B40E4B1B680C46C3F30223C3F107059B
:1008F000042D00D90425191D072901D2002300E089
:10090000DB1E012606FA05F1491E214099409E4052
:10091000761E16403143F0BC00F0FDBB0CED00E04C
:10092000064900F0070208684FF6FF03184040EA46
:100930000220034A10430860704700000CED00E0FD
:100940000000FA052DE9F0470F46050061D0434E3F
:10095000306800F00700B84209D2306820F0070084
:1009600038433060306800F00700B84251D1286841
:100970003B4C810712D5400703D5606840F4E06026
:1009800060602878000703D5606840F460506060BC
:100990006068A96820F0F000084360602878C0070C
:1009A00028D06868012810D02168022810D0890753
:1009B00000292EDA616821F0030101436160FFF72D
:1009C00031FF804641F288390DE021688903EFE765
:1009D0008901EDE7FFF726FFA0EB0801494502D9A1
:1009E0000320BDE8F0876068696800F00C00B0EB98
:1009F000810FEFD1306800F00700B8420BD93068A2
:100A000020F0070038433060306800F00700B8423B
:100A100001D00120E5E72878400705D56068E9683E
:100A200020F4E060084360602878000706D560681D
:100A3000296920F4605040EAC100606000F018F8B5
:100A40006168084AC1F30311515CC8400649086057
:100A500006480068FFF706FF0020C2E700200240BA
:100A600000100240AC120008640600205C06002062
:100A700012A185B00FC98DE80F0014A0144A0068B8
:100A800004905168134801F00C03042B10D0082B7C
:100A90000ED1C1F38343C9031DF803000AD5516881
:100AA00004AAC1F34041515C0A4A5043B0FBF1F043
:100AB00005B0704708494843FAE7000002030405FF
:100AC000060708090A0B0C0D0E0F1010010200009A
:100AD0000010024000127A0000093D002DE9F84F95
:100AE000040070D02078C04DC00749D06868C0F3BA
:100AF0008100012807D06868C0F38100022809D16D
:100B00006868C00306D52868800339D56068002866
:100B1000E7D035E06068B0F5803F0BD010B1B0F59C
:100B2000A02F11D0286820F480302860286820F495
:100B3000802002E0286840F480302860606890B12E
:100B4000FFF770FE06460AE0286840F4802028601F
:100B5000F0E700BFFFF766FE801B642873D82868A3
:100B60008003F7D50CE0FFF75DFE064605E000BF09
:100B7000FFF758FE801B6428F0D828688003F7D45C
:100B800020789A4E80074FF001094FF0000839D5C0
:100B9000686810F00C0F07D06868C0F38100022865
:100BA00009D16868C00306D42868800714D5206975
:100BB000012808D110E02069B0B1C6F80090FFF715
:100BC00031FE074605E00AE1FFF72CFEC01B0228B4
:100BD000C4D828688007F7D52868616920F0F80034
:100BE00040EAC10028600DE0C6F80080FFF71AFE59
:100BF000074604E0FFF716FEC01B022823D828682A
:100C00008007F7D4207800072CD57948A169D9B19D
:100C1000C0F80090FFF706FE074604E0FFF702FE6B
:100C2000C01B02280FD8686A8007F7D571484FF4B7
:100C3000FA510068B0FBF1F0009000BF0098411E2F
:100C40000091FAD20EE080E0C0F80080FFF7EAFDE4
:100C5000074604E0FFF7E6FDC01B022875D8686A66
:100C60008007F7D42078400760D5E8690027C000E6
:100C700008D4E86940F08050E861E869012700F095
:100C8000805000905C480168C90513D40168834610
:100C900041F480710160FFF7C5FD824606E000BFA8
:100CA000FFF7C0FDA0EB0A0064284ED8DBF8000077
:100CB000C005F5D5E06801280AD008B1052813D091
:100CC000286A20F001002862286A20F0040002E06F
:100CD000286A40F001002862E06841F2883B98B140
:100CE000FFF7A0FD82460BE0286A40F0040028626E
:100CF000EEE700BFFFF796FDA0EB0A0159455AD871
:100D0000286A8007F6D50CE0FFF78CFD824605E0E7
:100D1000FFF788FDA0EB0A0159454CD8286A8007E7
:100D2000F6D41FB1E86920F08050E861E06988B32B
:100D30006968C1F38101022944D00228C6F86080A5
:100D400004D0FFF76FFD044638E034E0FFF76AFD9A
:100D5000074604E0FFF766FDC01B02282BD8286871
:100D60008001F7D4206AB0F5803F05D16868A1689A
:100D700020F4003008436860D4E90801084369683A
:100D800021F4741108436860C6F86090FFF74AFDCB
:100D9000044606E025E000BFFFF744FD001B0228E3
:100DA00009D828688001F7D51BE000BFFFF73AFD9E
:100DB000001B022802D90320BDE8F88F28688001B3
:100DC000F4D40EE00128F7D06868226A00F480317C
:100DD000914204D1616A00F47010884201D0012070
:100DE000EAE70020E8E7000000100240000042426D
:100DF00080044242640600200070004010B5401E8E
:100E0000B0F1807F01D3012010BD4FF0E02460617C
:100E10000F21601700F07FF90020A06107202061FA
:100E2000002010BDFEE7000070B5114C01251148EF
:100E30006278690252B1012A0ED0022A05D1FFF769
:100E4000DFFC80B100206070A57070BDFFF7D8FC9A
:100E50000028FAD1657070BDFFF7D2FC00B925708B
:100E60000220607070BD60680A30606070BD000074
:100E700000000020000C014070B586B0002420481E
:100E80000094019402940394816941F0040181610A
:100E9000816901F004010491816941F010018161CF
:100EA000816901F010010491816941F008018161BB
:100EB000816901F008010491816941F0200181619B
:100EC0008069104E00F020004FF40055049000227D
:100ED00029463046FFF7A1FC0320CDE902400095EA
:100EE0000125694601953046FFF7AAFB68028DE8A7
:100EF000310069460448FFF7A3FB06B070BD00004F
:100F00000010024000100140000C01402DE9FF4795
:100F100000240B4EDFF82C90254601274FF00308E4
:100F2000029536F81400CDE900076946CDF80C802B
:100F30004846FFF785FB641C082CF1DBBDE8FF8702
:100F400018060020000801402DE9FF4700240B4E41
:100F5000DFF82C90254601274FF00308029536F85C
:100F60001400CDE900076946CDF80C804846FFF72C
:100F700067FB641C082CF1DBBDE8FF872806002016
:100F8000000C0140FEE770477047000030B4194B79
:100F900090B1194C012813D0022814D0032816D080
:100FA00004281AD005281BD006281DD007281FD1D9
:100FB0000A464FF400410CE00A464FF4805108E025
:100FC0000A46042101E00A460821204602E00A46BA
:100FD0000221184630BCFFF720BC0A462021F4E766
:100FE0000A464FF48061F4E70A464FF48041F0E787
:100FF00030BC7047000C01400008014010B50724C8
:101000000021204600F01CF801212046FFF7BEFF1A
:101010003220FFF703FB641EF2D510BD10B500248B
:101020000121204600F00CF800212046FFF7AEFF1A
:101030003220FFF7F3FA641C082CF1DB10BD00002E
:1010400030B4184CA0B1012815D0174B022817D086
:10105000032818D004281AD005281BD006281CD035
:1010600007281DD10A461021184630BCFFF7D5BB12
:101070000A46012102E00A464FF400512046F4E7F7
:101080000A468021F0E70A464FF40061F6E70A4677
:101090000121E9E70A464021E6E70A460221E3E7A3
:1010A00030BC7047000C0140000801407047000050
:1010B00010B5FFF7BDFB07480178491CC9B20170A4
:1010C0000A2905D100210170BDE81040FFF7ACBE30
:1010D00010BD00000806002000B58FB0282168462A
:1010E000FFF739F814210AA8FFF735F86846FFF72B
:1010F000F5FC0F200A9002200B9000204FF4806135
:10110000CDE90C010E9002210AA8FFF71BFC0FB0DD
:1011100000BD7047FEE70907090E002804DB00F157
:10112000E02080F80014704700F00F0000F1E0208C
:1011300080F8141D704702E008C8121F08C1002A79
:10114000FAD170477047002001E001C1121F002A48
:10115000FBD17047FFF774FBFFF78EFEFFF7D6FE5B
:10116000FFF7F2FEFFF7B8FFFFF786FE0024DFF877
:1011700018A1DFF81881464E4FF40059142798F84B
:101180000200454601281AD10020A87028780128BD
:1011900014D16868B0F52F7F06D8641CA4B2494604
:1011A0005046FFF732FB09E0B0F5966F06D963248D
:1011B00049465046FFF729FB6F601BE06F60E4B1C2
:1011C000012C1CD0022C22D0032C22D0042C27D09E
:1011D000052C27D0062C2CD0072C2AD0082C2BD05D
:1011E000092C2FD00A2C32D00B2C40D00C2C49D0FB
:1011F000632CC4D10021274826E0012104E02649C0
:101200000020C6E900010146204808301CE0012109
:1012100004E021490020C6E9000101461F4813E00F
:10122000012104E01C490020C6E9000101461C48D8
:101230000AE001211B4807E017490020C6E9000128
:10124000014600E001211848FFF794F997E70F489D
:1012500001210830FFF78EF96420FFF7DFF9012143
:101260000E48FFF787F96420FFF7D8F9D8E7FFF7B2
:10127000D5FE6420FFF7D2F9FFF7C0FE6420FFF728
:10128000CDF97CE700247AE700100140000000203F
:10129000100600200805002000003440080100204E
:1012A00008040020080200200803002000000000BD
:1012B000000000000102030406070809DC12000810
:1012C0000000002068060000FC04000870130008FD
:1012D000680600200004000046110008410227149F
:1012E0005A0104091210690C095604091A640912FA
:1012F000A409121C0916C8014CA958091E9CE988AA
:10130000098AE0091A4009225C09AE40291409FA49
:10131000040124A9280912386910E92809120C09C6
:101320001E100912940912600916200942DC0912E4
:1013300090091EF4093E20091A9409161C091E2C56
:10134000E968E9040112144940011202120412086A
:101350001210122012401A80282202A9113C0C01FE
:1013600040049A08089904295882101324F40000B4
:04000005080000ED02
:00000001FF
